{
  "contractName": "KeyedCollection",
  "abi": [
    {
      "constant": true,
      "inputs": [],
      "name": "getCount",
      "outputs": [
        {
          "name": "count",
          "type": "uint256"
        }
      ],
      "payable": false,
      "stateMutability": "view",
      "type": "function"
    },
    {
      "inputs": [],
      "payable": false,
      "stateMutability": "nonpayable",
      "type": "constructor"
    }
  ],
  "bytecode": "0x60606040523415600e57600080fd5b60a28061001c6000396000f300606060405260043610603f576000357c0100000000000000000000000000000000000000000000000000000000900463ffffffff168063a87d942c146044575b600080fd5b3415604e57600080fd5b6054606a565b6040518082815260200191505060405180910390f35b600080805490509050905600a165627a7a7230582067b924fd77e13a651122378785b70f7613f15206b69d84d10d434df70c35445f0029",
  "source": "pragma solidity ^0.4.2;\n\n//\n// Defines the base class for a collection of items keyed by a bytes32 (fixed-length string) type.\n//\n// Implementation Notes: If you define methods without a body, they are abstract.\n// This class could add those in the future, just be aware that you don't _deploy_ abstract classes.\n// If you do, the error message is vague and misleading: https://github.com/trufflesuite/truffle-contract/issues/34\ncontract KeyedCollection {\n    \n    // Keys\n    bytes32[] internal keys;\n\n    function KeyedCollection() {\n    }\n\n    // Add a key to the dictionary\n    function addKey(bytes32 key) internal\n    returns(uint length)\n    {\n        keys.push(key);\n        return keys.length - 1;\n    }\n\n    // potential abstract method - uncomment to see compile error/warning\n    // Gets whether the key is present in the collection\n    //function exists(bytes32 key) public constant returns(bool isIndeed);\n\n    // Gets the number of keys\n    function getCount() public constant\n        returns(uint count)\n    {\n        return keys.length;\n    }\n}\n",
  "sourcePath": "/Users/Kevin/Desktop/govhack2/contracts/KeyedCollection.sol",
  "compiler": {
    "name": "solc",
    "version": "0.4.18+commit.9cf6e910.Emscripten.clang"
  },
  "schemaVersion": "1.0.1",
  "updatedAt": "2017-12-24T10:16:07.929Z"
}