{
  "contractName": "Owned",
  "abi": [
    {
      "constant": false,
      "inputs": [],
      "name": "remove",
      "outputs": [],
      "payable": false,
      "stateMutability": "nonpayable",
      "type": "function"
    },
    {
      "constant": false,
      "inputs": [
        {
          "name": "newOwner",
          "type": "address"
        }
      ],
      "name": "transferOwnership",
      "outputs": [],
      "payable": false,
      "stateMutability": "nonpayable",
      "type": "function"
    },
    {
      "inputs": [],
      "payable": false,
      "stateMutability": "nonpayable",
      "type": "constructor"
    }
  ],
  "bytecode": "0x6060604052341561000f57600080fd5b336000806101000a81548173ffffffffffffffffffffffffffffffffffffffff021916908373ffffffffffffffffffffffffffffffffffffffff16021790555061022c8061005e6000396000f30060606040526004361061004c576000357c0100000000000000000000000000000000000000000000000000000000900463ffffffff168063a7f4377914610051578063f2fde38b14610066575b600080fd5b341561005c57600080fd5b61006461009f565b005b341561007157600080fd5b61009d600480803573ffffffffffffffffffffffffffffffffffffffff16906020019091905050610130565b005b6000809054906101000a900473ffffffffffffffffffffffffffffffffffffffff1673ffffffffffffffffffffffffffffffffffffffff163373ffffffffffffffffffffffffffffffffffffffff16141561012e576000809054906101000a900473ffffffffffffffffffffffffffffffffffffffff1673ffffffffffffffffffffffffffffffffffffffff16ff5b565b6000809054906101000a900473ffffffffffffffffffffffffffffffffffffffff1673ffffffffffffffffffffffffffffffffffffffff163373ffffffffffffffffffffffffffffffffffffffff1614156101fd57600073ffffffffffffffffffffffffffffffffffffffff168173ffffffffffffffffffffffffffffffffffffffff161415156101fc57806000806101000a81548173ffffffffffffffffffffffffffffffffffffffff021916908373ffffffffffffffffffffffffffffffffffffffff1602179055505b5b505600a165627a7a72305820453ac6c112aea432db18373e5dd2066f6c35af4406c7e370ff7183d9a91109bf0029",
  "source": "pragma solidity ^0.4.2;\n\n//\n// Defines an owned contract.\n//\ncontract Owned {\n\n    // The contract owner (who has permission to destroy this contract)\n    address internal owner;\n\n    // Constructor\n    function Owned() {\n        owner = msg.sender;\n    }\n\n    function remove() onlyOwner {\n        selfdestruct(owner);\n    }\n\n    modifier onlyOwner() {\n        if (msg.sender == owner)\n        _;\n    }\n\n    //\n    // A restricted modifier that restricts access to the owner of this contract -OR- that the sender is the given address.\n    //\n    modifier restricted(address entityOwner) {       \n\t\trequire (msg.sender == owner || msg.sender == entityOwner);\n        _;\n\t}\n\n    function transferOwnership(address newOwner) onlyOwner {\n        if (newOwner != address(0)) owner = newOwner;\n    }\n}\n",
  "sourcePath": "/Users/Kevin/Desktop/govhack2/contracts/Owned.sol",
  "compiler": {
    "name": "solc",
    "version": "0.4.18+commit.9cf6e910.Emscripten.clang"
  },
  "schemaVersion": "1.0.1",
  "updatedAt": "2017-12-29T00:58:00.524Z"
}