{
  "contractName": "TradeManager",
  "abi": [
    {
      "constant": false,
      "inputs": [
        {
          "name": "referenceCode",
          "type": "bytes32"
        },
        {
          "name": "issueDate",
          "type": "uint256"
        },
        {
          "name": "offerExpiry",
          "type": "uint256"
        },
        {
          "name": "vendor",
          "type": "address"
        },
        {
          "name": "counterparty",
          "type": "address"
        }
      ],
      "name": "insert",
      "outputs": [
        {
          "name": "index",
          "type": "uint256"
        }
      ],
      "payable": false,
      "stateMutability": "nonpayable",
      "type": "function"
    },
    {
      "constant": true,
      "inputs": [
        {
          "name": "index",
          "type": "uint256"
        }
      ],
      "name": "getByIndex",
      "outputs": [
        {
          "name": "",
          "type": "bytes32"
        },
        {
          "name": "",
          "type": "uint256"
        },
        {
          "name": "",
          "type": "uint256"
        },
        {
          "name": "",
          "type": "uint256"
        },
        {
          "name": "",
          "type": "uint8"
        },
        {
          "name": "",
          "type": "address"
        },
        {
          "name": "",
          "type": "address"
        }
      ],
      "payable": false,
      "stateMutability": "view",
      "type": "function"
    },
    {
      "constant": true,
      "inputs": [
        {
          "name": "key",
          "type": "bytes32"
        }
      ],
      "name": "exists",
      "outputs": [
        {
          "name": "",
          "type": "bool"
        }
      ],
      "payable": false,
      "stateMutability": "view",
      "type": "function"
    },
    {
      "constant": true,
      "inputs": [
        {
          "name": "referenceCode",
          "type": "bytes32"
        }
      ],
      "name": "getByReferenceCode",
      "outputs": [
        {
          "name": "",
          "type": "bytes32"
        },
        {
          "name": "",
          "type": "uint256"
        },
        {
          "name": "",
          "type": "uint256"
        },
        {
          "name": "",
          "type": "uint256"
        },
        {
          "name": "",
          "type": "uint8"
        },
        {
          "name": "",
          "type": "address"
        },
        {
          "name": "",
          "type": "address"
        }
      ],
      "payable": false,
      "stateMutability": "view",
      "type": "function"
    },
    {
      "constant": false,
      "inputs": [
        {
          "name": "referenceCode",
          "type": "bytes32"
        },
        {
          "name": "offerAccepted",
          "type": "uint256"
        },
        {
          "name": "status",
          "type": "uint8"
        }
      ],
      "name": "updateStatus",
      "outputs": [],
      "payable": false,
      "stateMutability": "nonpayable",
      "type": "function"
    },
    {
      "constant": false,
      "inputs": [],
      "name": "remove",
      "outputs": [],
      "payable": false,
      "stateMutability": "nonpayable",
      "type": "function"
    },
    {
      "constant": true,
      "inputs": [],
      "name": "getCount",
      "outputs": [
        {
          "name": "count",
          "type": "uint256"
        }
      ],
      "payable": false,
      "stateMutability": "view",
      "type": "function"
    },
    {
      "constant": false,
      "inputs": [
        {
          "name": "newOwner",
          "type": "address"
        }
      ],
      "name": "transferOwnership",
      "outputs": [],
      "payable": false,
      "stateMutability": "nonpayable",
      "type": "function"
    }
  ],
  "bytecode": "0x6060604052336000806101000a81548173ffffffffffffffffffffffffffffffffffffffff021916908373ffffffffffffffffffffffffffffffffffffffff160217905550610d18806100536000396000f30060606040526004361061008e576000357c0100000000000000000000000000000000000000000000000000000000900463ffffffff168063110d9e68146100935780632d883a731461011e57806338a699a4146101ed5780633b7684331461022c57806352a6840b146102ff578063a7f437791461033b578063a87d942c14610350578063f2fde38b14610379575b600080fd5b341561009e57600080fd5b61010860048080356000191690602001909190803590602001909190803590602001909190803573ffffffffffffffffffffffffffffffffffffffff1690602001909190803573ffffffffffffffffffffffffffffffffffffffff169060200190919050506103b2565b6040518082815260200191505060405180910390f35b341561012957600080fd5b61013f6004808035906020019091905050610587565b60405180886000191660001916815260200187815260200186815260200185815260200184600281111561016f57fe5b60ff1681526020018373ffffffffffffffffffffffffffffffffffffffff1673ffffffffffffffffffffffffffffffffffffffff1681526020018273ffffffffffffffffffffffffffffffffffffffff1673ffffffffffffffffffffffffffffffffffffffff16815260200197505050505050505060405180910390f35b34156101f857600080fd5b6102126004808035600019169060200190919050506105ed565b604051808215151515815260200191505060405180910390f35b341561023757600080fd5b610251600480803560001916906020019091905050610639565b60405180886000191660001916815260200187815260200186815260200185815260200184600281111561028157fe5b60ff1681526020018373ffffffffffffffffffffffffffffffffffffffff1673ffffffffffffffffffffffffffffffffffffffff1681526020018273ffffffffffffffffffffffffffffffffffffffff1673ffffffffffffffffffffffffffffffffffffffff16815260200197505050505050505060405180910390f35b341561030a57600080fd5b61033960048080356000191690602001909190803590602001909190803560ff169060200190919050506107eb565b005b341561034657600080fd5b61034e610a6b565b005b341561035b57600080fd5b610363610afc565b6040518082815260200191505060405180910390f35b341561038457600080fd5b6103b0600480803573ffffffffffffffffffffffffffffffffffffffff16906020019091905050610b09565b005b60006103bc610c19565b6103c5876105ed565b1515156103d157600080fd5b6101006040519081016040528088600019168152602001878152602001600060028111156103fb57fe5b81526020018573ffffffffffffffffffffffffffffffffffffffff1681526020018473ffffffffffffffffffffffffffffffffffffffff1681526020016001151581526020016000815260200186815250905080600260008960001916600019168152602001908152602001600020600082015181600001906000191690556020820151816001015560408201518160020160006101000a81548160ff021916908360028111156104a857fe5b021790555060608201518160020160016101000a81548173ffffffffffffffffffffffffffffffffffffffff021916908373ffffffffffffffffffffffffffffffffffffffff16021790555060808201518160030160006101000a81548173ffffffffffffffffffffffffffffffffffffffff021916908373ffffffffffffffffffffffffffffffffffffffff16021790555060a08201518160030160146101000a81548160ff02191690831515021790555060c0820151816004015560e0820151816005015590505061057b87610bd9565b91505095945050505050565b60008060008060008060008088101580156105a6575060018054905088105b15156105b157600080fd5b6105d46001898154811015156105c357fe5b906000526020600020900154610639565b9650965096509650965096509650919395979092949650565b60008060018054905014156106055760009050610634565b60026000836000191660001916815260200190815260200160002060030160149054906101000a900460ff1690505b919050565b600080600080600080600061064c610c19565b610655896105ed565b151561066057600080fd5b600260008a600019166000191681526020019081526020016000206101006040519081016040529081600082015460001916600019168152602001600182015481526020016002820160009054906101000a900460ff1660028111156106c257fe5b60028111156106cd57fe5b81526020016002820160019054906101000a900473ffffffffffffffffffffffffffffffffffffffff1673ffffffffffffffffffffffffffffffffffffffff1673ffffffffffffffffffffffffffffffffffffffff1681526020016003820160009054906101000a900473ffffffffffffffffffffffffffffffffffffffff1673ffffffffffffffffffffffffffffffffffffffff1673ffffffffffffffffffffffffffffffffffffffff1681526020016003820160149054906101000a900460ff16151515158152602001600482015481526020016005820154815250509050806000015181602001518260e001518360c00151846040015185606001518660800151975097509750975097509750975050919395979092949650565b6107f3610c19565b6107fc846105ed565b151561080757600080fd5b6002600085600019166000191681526020019081526020016000206101006040519081016040529081600082015460001916600019168152602001600182015481526020016002820160009054906101000a900460ff16600281111561086957fe5b600281111561087457fe5b81526020016002820160019054906101000a900473ffffffffffffffffffffffffffffffffffffffff1673ffffffffffffffffffffffffffffffffffffffff1673ffffffffffffffffffffffffffffffffffffffff1681526020016003820160009054906101000a900473ffffffffffffffffffffffffffffffffffffffff1673ffffffffffffffffffffffffffffffffffffffff1673ffffffffffffffffffffffffffffffffffffffff1681526020016003820160149054906101000a900460ff161515151581526020016004820154815260200160058201548152505090508060e001514210151561096757600080fd5b6000600281111561097457fe5b8160400151600281111561098457fe5b14156109d4576001600281111561099757fe5b8260028111156109a357fe5b14806109c457506002808111156109b657fe5b8260028111156109c257fe5b145b15156109cf57600080fd5b6109df565b600015156109de57fe5b5b8160026000866000191660001916815260200190815260200160002060020160006101000a81548160ff02191690836002811115610a1957fe5b0217905550826002600086600019166000191681526020019081526020016000206004018190555060006002600086600019166000191681526020019081526020016000206005018190555050505050565b6000809054906101000a900473ffffffffffffffffffffffffffffffffffffffff1673ffffffffffffffffffffffffffffffffffffffff163373ffffffffffffffffffffffffffffffffffffffff161415610afa576000809054906101000a900473ffffffffffffffffffffffffffffffffffffffff1673ffffffffffffffffffffffffffffffffffffffff16ff5b565b6000600180549050905090565b6000809054906101000a900473ffffffffffffffffffffffffffffffffffffffff1673ffffffffffffffffffffffffffffffffffffffff163373ffffffffffffffffffffffffffffffffffffffff161415610bd657600073ffffffffffffffffffffffffffffffffffffffff168173ffffffffffffffffffffffffffffffffffffffff16141515610bd557806000806101000a81548173ffffffffffffffffffffffffffffffffffffffff021916908373ffffffffffffffffffffffffffffffffffffffff1602179055505b5b50565b600060018054806001018281610bef9190610c9b565b91600052602060002090016000849091909150906000191690555060018080549050039050919050565b61010060405190810160405280600080191681526020016000815260200160006002811115610c4457fe5b8152602001600073ffffffffffffffffffffffffffffffffffffffff168152602001600073ffffffffffffffffffffffffffffffffffffffff16815260200160001515815260200160008152602001600081525090565b815481835581811511610cc257818360005260206000209182019101610cc19190610cc7565b5b505050565b610ce991905b80821115610ce5576000816000905550600101610ccd565b5090565b905600a165627a7a72305820cb163ca024a4512a910d66676ae293e9c688760d64afe9115b4dfa6997481cff0029",
  "source": "pragma solidity ^0.4.2;\n\nimport './Owned.sol';\nimport './KeyedCollection.sol';\n\n//\n// Defines the contract for trades.\n//\ncontract TradeManager is Owned, KeyedCollection {\n\n    enum TradeStatus { Created, CounterpartyCertified, CounterpartyRejected }\n    TradeStatus constant DEFAULT_TRADE_STATUS = TradeStatus.Created;\n\n    struct Trade {\n        bytes32 referenceCode;\n        uint issueDate;\n        TradeStatus status;\n        address vendor;\n        address counterparty;\n        bool isValue;\n        uint offerAccepted;\n        uint offerExpiry;\n    }\n\n    // Trades by reference code\n    mapping (bytes32 => Trade) private trades;\n\n    function exists(bytes32 key) public constant\n        returns(bool)\n    {\n        if (keys.length == 0) {\n            return false;\n        }\n        return (trades[key].isValue);\n    }\n\n    function insert(bytes32 referenceCode, uint issueDate, uint offerExpiry, address vendor, address counterparty) public\n        returns(uint index)\n    {\n        require(!exists(referenceCode));\n\n        Trade memory trade = Trade({\n            referenceCode: referenceCode,\n            issueDate: issueDate,\n            status: DEFAULT_TRADE_STATUS,\n            offerExpiry: offerExpiry,\n            vendor: vendor,\n            counterparty: counterparty,\n            isValue: true,\n            offerAccepted: 0x0\n        });\n        trades[referenceCode] = trade;\n\n        return super.addKey(referenceCode);\n    }\n\n    function getByIndex(uint index) public constant\n        returns(bytes32, uint, uint, uint, TradeStatus, address, address)\n    {\n        require(index >= 0 && index < keys.length);\n\n        return getByReferenceCode(keys[index]);\n    }\n\n    function getByReferenceCode(bytes32 referenceCode) public constant\n        returns(bytes32, uint, uint, uint, TradeStatus, address, address)\n    {\n        require(exists(referenceCode));\n\n        Trade memory trade;\n        trade = trades[referenceCode];\n\n        return(trade.referenceCode, trade.issueDate, trade.offerExpiry, trade.offerAccepted, trade.status, trade.vendor, trade.counterparty);\n    }\n\n    function updateStatus(bytes32 referenceCode, uint offerAccepted, TradeStatus status) public\n    {\n        require(exists(referenceCode));\n        // super basic validation to enforce the workflow\n        // created -> counterparty certified || counterparty rejected -> etc.\n\n        Trade memory trade = trades[referenceCode];\n        require(now < trade.offerExpiry);\n\n        if (trade.status == TradeManager.TradeStatus.Created) {\n            require(status == TradeStatus.CounterpartyCertified || status == TradeStatus.CounterpartyRejected);\n        } else {\n            // Invalid status transition\n            assert(false);\n        }\n\n        trades[referenceCode].status = status;\n        trades[referenceCode].offerAccepted = offerAccepted;\n        trades[referenceCode].offerExpiry = 0x0;\n    }\n}\n",
  "sourcePath": "/Users/Kevin/Desktop/govhack2/contracts/TradeManager.sol",
  "compiler": {
    "name": "solc",
    "version": "0.4.18+commit.9cf6e910.Emscripten.clang"
  },
  "schemaVersion": "1.0.1",
  "updatedAt": "2017-12-24T10:16:07.939Z"
}