{
  "contractName": "Trades",
  "abi": [
    {
      "constant": false,
      "inputs": [
        {
          "name": "account",
          "type": "address"
        },
        {
          "name": "referenceCode",
          "type": "bytes32"
        }
      ],
      "name": "addReceivedTrade",
      "outputs": [],
      "payable": false,
      "stateMutability": "nonpayable",
      "type": "function"
    },
    {
      "constant": true,
      "inputs": [
        {
          "name": "account",
          "type": "address"
        },
        {
          "name": "index",
          "type": "uint256"
        }
      ],
      "name": "getReceivedTrade",
      "outputs": [
        {
          "name": "",
          "type": "bytes32"
        }
      ],
      "payable": false,
      "stateMutability": "view",
      "type": "function"
    },
    {
      "constant": true,
      "inputs": [
        {
          "name": "account",
          "type": "address"
        }
      ],
      "name": "getCounts",
      "outputs": [
        {
          "name": "sentTradesCount",
          "type": "uint256"
        },
        {
          "name": "receivedTradesCount",
          "type": "uint256"
        }
      ],
      "payable": false,
      "stateMutability": "view",
      "type": "function"
    },
    {
      "constant": false,
      "inputs": [],
      "name": "remove",
      "outputs": [],
      "payable": false,
      "stateMutability": "nonpayable",
      "type": "function"
    },
    {
      "constant": false,
      "inputs": [
        {
          "name": "account",
          "type": "address"
        },
        {
          "name": "referenceCode",
          "type": "bytes32"
        }
      ],
      "name": "addSentTrade",
      "outputs": [],
      "payable": false,
      "stateMutability": "nonpayable",
      "type": "function"
    },
    {
      "constant": true,
      "inputs": [
        {
          "name": "account",
          "type": "address"
        },
        {
          "name": "index",
          "type": "uint256"
        }
      ],
      "name": "getSentTrade",
      "outputs": [
        {
          "name": "",
          "type": "bytes32"
        }
      ],
      "payable": false,
      "stateMutability": "view",
      "type": "function"
    },
    {
      "constant": false,
      "inputs": [
        {
          "name": "newOwner",
          "type": "address"
        }
      ],
      "name": "transferOwnership",
      "outputs": [],
      "payable": false,
      "stateMutability": "nonpayable",
      "type": "function"
    }
  ],
  "bytecode": "0x6060604052336000806101000a81548173ffffffffffffffffffffffffffffffffffffffff021916908373ffffffffffffffffffffffffffffffffffffffff160217905550610863806100536000396000f300606060405260043610610083576000357c0100000000000000000000000000000000000000000000000000000000900463ffffffff16806304ac3b80146100885780632f653279146100ce5780635b4674041461012c578063a7f4377914610180578063b7c5282014610195578063ecc72b0f146101db578063f2fde38b14610239575b600080fd5b341561009357600080fd5b6100cc600480803573ffffffffffffffffffffffffffffffffffffffff1690602001909190803560001916906020019091905050610272565b005b34156100d957600080fd5b61010e600480803573ffffffffffffffffffffffffffffffffffffffff169060200190919080359060200190919050506102e5565b60405180826000191660001916815260200191505060405180910390f35b341561013757600080fd5b610163600480803573ffffffffffffffffffffffffffffffffffffffff169060200190919050506103cc565b604051808381526020018281526020019250505060405180910390f35b341561018b57600080fd5b6101936104f1565b005b34156101a057600080fd5b6101d9600480803573ffffffffffffffffffffffffffffffffffffffff1690602001909190803560001916906020019091905050610582565b005b34156101e657600080fd5b61021b600480803573ffffffffffffffffffffffffffffffffffffffff169060200190919080359060200190919050506105f5565b60405180826000191660001916815260200191505060405180910390f35b341561024457600080fd5b610270600480803573ffffffffffffffffffffffffffffffffffffffff169060200190919050506106dc565b005b600160008373ffffffffffffffffffffffffffffffffffffffff1673ffffffffffffffffffffffffffffffffffffffff16815260200190815260200160002060010180548060010182816102c691906107ac565b9160005260206000209001600083909190915090600019169055505050565b6000808373ffffffffffffffffffffffffffffffffffffffff161415801561030e575060008210155b801561035e5750600160008473ffffffffffffffffffffffffffffffffffffffff1673ffffffffffffffffffffffffffffffffffffffff1681526020019081526020016000206001018054905082105b151561036957600080fd5b600160008473ffffffffffffffffffffffffffffffffffffffff1673ffffffffffffffffffffffffffffffffffffffff168152602001908152602001600020600101828154811015156103b857fe5b906000526020600020900154905092915050565b6000806103d76107d8565b600160008573ffffffffffffffffffffffffffffffffffffffff1673ffffffffffffffffffffffffffffffffffffffff1681526020019081526020016000206040805190810160405290816000820180548060200260200160405190810160405280929190818152602001828054801561047457602002820191906000526020600020905b8154600019168152602001906001019080831161045c575b50505050508152602001600182018054806020026020016040519081016040528092919081815260200182805480156104d057602002820191906000526020600020905b815460001916815260200190600101908083116104b8575b50505050508152505090508060000151518160200151519250925050915091565b6000809054906101000a900473ffffffffffffffffffffffffffffffffffffffff1673ffffffffffffffffffffffffffffffffffffffff163373ffffffffffffffffffffffffffffffffffffffff161415610580576000809054906101000a900473ffffffffffffffffffffffffffffffffffffffff1673ffffffffffffffffffffffffffffffffffffffff16ff5b565b600160008373ffffffffffffffffffffffffffffffffffffffff1673ffffffffffffffffffffffffffffffffffffffff16815260200190815260200160002060000180548060010182816105d691906107ac565b9160005260206000209001600083909190915090600019169055505050565b6000808373ffffffffffffffffffffffffffffffffffffffff161415801561061e575060008210155b801561066e5750600160008473ffffffffffffffffffffffffffffffffffffffff1673ffffffffffffffffffffffffffffffffffffffff1681526020019081526020016000206000018054905082105b151561067957600080fd5b600160008473ffffffffffffffffffffffffffffffffffffffff1673ffffffffffffffffffffffffffffffffffffffff168152602001908152602001600020600001828154811015156106c857fe5b906000526020600020900154905092915050565b6000809054906101000a900473ffffffffffffffffffffffffffffffffffffffff1673ffffffffffffffffffffffffffffffffffffffff163373ffffffffffffffffffffffffffffffffffffffff1614156107a957600073ffffffffffffffffffffffffffffffffffffffff168173ffffffffffffffffffffffffffffffffffffffff161415156107a857806000806101000a81548173ffffffffffffffffffffffffffffffffffffffff021916908373ffffffffffffffffffffffffffffffffffffffff1602179055505b5b50565b8154818355818115116107d3578183600052602060002091820191016107d291906107fe565b5b505050565b60408051908101604052806107eb610823565b81526020016107f8610823565b81525090565b61082091905b8082111561081c576000816000905550600101610804565b5090565b90565b6020604051908101604052806000815250905600a165627a7a72305820d1a3cd2614f2e1cf74ab43e4365847d225af141561c8f4fdf41885c1b7d5d90d0029",
  "source": "pragma solidity ^0.4.2;\n\nimport './Owned.sol';\n\n//\n// Tracks relationships between accounts and \"trades\", such as between an account and trades.\n// This is really just a convenient way to look-up those related accounts (in an efficient/indexed mannger, as opposed to iterating through all trades etc.)\n//\ncontract Trades is Owned {\n\n    struct TradeAssociation {\n        // These arrays represent \"keys\" to look-up in each respective set\n        // e.g. for address: 0xABC: ['abc', 'def', 'hij']\n        // You can query, how many \"things\" does 0xABC have: 3\n        // Then you can get the key of each \"thing\" by index [0, 1, 2]\n        // And you can use the index to look-up \"things\" via their respective contract/manager\n        // So to that effect:\n        // addMethods takes an address and \"key\"\n        // getMethods take an address an index (which gives you back a key)\n        bytes32[] sentTrades;\n        bytes32[] receivedTrades;\n    }\n\n    mapping(address => TradeAssociation) tradeAssociations;\n\n    function addSentTrade(address account, bytes32 referenceCode) public\n    {\n        tradeAssociations[account].sentTrades.push(referenceCode);\n    }\n\n    function getSentTrade(address account, uint index) public constant\n    returns (bytes32)\n    {\n        require(account != 0x0 && index >= 0 && index < tradeAssociations[account].sentTrades.length);\n\n        return tradeAssociations[account].sentTrades[index];\n    }\n\n    function addReceivedTrade(address account, bytes32 referenceCode) public\n    {\n        tradeAssociations[account].receivedTrades.push(referenceCode);\n    }\n\n    function getReceivedTrade(address account, uint index) public constant\n    returns (bytes32)\n    {\n        require(account != 0x0 && index >= 0 && index < tradeAssociations[account].receivedTrades.length);\n\n        return tradeAssociations[account].receivedTrades[index];\n    }\n\n    function getCounts(address account) public constant\n        returns (uint sentTradesCount, uint receivedTradesCount)\n    {\n        TradeAssociation memory tradeAssociation = tradeAssociations[account];\n\n        return (tradeAssociation.sentTrades.length,\n            tradeAssociation.receivedTrades.length);\n    }\n}\n",
  "sourcePath": "/Users/Kevin/Desktop/govhack2/contracts/Trades.sol",
  "compiler": {
    "name": "solc",
    "version": "0.4.18+commit.9cf6e910.Emscripten.clang"
  },
  "schemaVersion": "1.0.1",
  "updatedAt": "2017-12-29T00:58:00.520Z"
}