{
  "contractName": "TradeRegister",
  "abi": [
    {
      "constant": false,
      "inputs": [
        {
          "name": "referenceCode",
          "type": "bytes32"
        },
        {
          "name": "issueDate",
          "type": "uint256"
        },
        {
          "name": "offerExpiry",
          "type": "uint256"
        },
        {
          "name": "vendor",
          "type": "address"
        },
        {
          "name": "counterparty",
          "type": "address"
        }
      ],
      "name": "createTrade",
      "outputs": [
        {
          "name": "index",
          "type": "uint256"
        }
      ],
      "payable": false,
      "stateMutability": "nonpayable",
      "type": "function"
    },
    {
      "constant": true,
      "inputs": [
        {
          "name": "index",
          "type": "uint256"
        }
      ],
      "name": "getTradeByIndex",
      "outputs": [
        {
          "name": "",
          "type": "bytes32"
        },
        {
          "name": "",
          "type": "uint256"
        },
        {
          "name": "",
          "type": "uint256"
        },
        {
          "name": "",
          "type": "uint256"
        },
        {
          "name": "",
          "type": "uint8"
        },
        {
          "name": "",
          "type": "address"
        },
        {
          "name": "",
          "type": "address"
        }
      ],
      "payable": false,
      "stateMutability": "view",
      "type": "function"
    },
    {
      "constant": true,
      "inputs": [
        {
          "name": "referenceCode",
          "type": "bytes32"
        }
      ],
      "name": "getTradeByReferenceCode",
      "outputs": [
        {
          "name": "",
          "type": "bytes32"
        },
        {
          "name": "",
          "type": "uint256"
        },
        {
          "name": "",
          "type": "uint256"
        },
        {
          "name": "",
          "type": "uint256"
        },
        {
          "name": "",
          "type": "uint8"
        },
        {
          "name": "",
          "type": "address"
        },
        {
          "name": "",
          "type": "address"
        }
      ],
      "payable": false,
      "stateMutability": "view",
      "type": "function"
    },
    {
      "constant": true,
      "inputs": [],
      "name": "getTradeCount",
      "outputs": [
        {
          "name": "count",
          "type": "uint256"
        }
      ],
      "payable": false,
      "stateMutability": "view",
      "type": "function"
    },
    {
      "constant": false,
      "inputs": [],
      "name": "remove",
      "outputs": [],
      "payable": false,
      "stateMutability": "nonpayable",
      "type": "function"
    },
    {
      "constant": true,
      "inputs": [
        {
          "name": "trader",
          "type": "address"
        }
      ],
      "name": "getTradesByAddress",
      "outputs": [
        {
          "name": "sentTradeIds",
          "type": "bytes32[]"
        },
        {
          "name": "receivedTradeIds",
          "type": "bytes32[]"
        }
      ],
      "payable": false,
      "stateMutability": "view",
      "type": "function"
    },
    {
      "constant": false,
      "inputs": [
        {
          "name": "referenceCode",
          "type": "bytes32"
        },
        {
          "name": "counterparty",
          "type": "address"
        }
      ],
      "name": "certifyTradeAsCounterparty",
      "outputs": [],
      "payable": false,
      "stateMutability": "nonpayable",
      "type": "function"
    },
    {
      "constant": false,
      "inputs": [
        {
          "name": "newOwner",
          "type": "address"
        }
      ],
      "name": "transferOwnership",
      "outputs": [],
      "payable": false,
      "stateMutability": "nonpayable",
      "type": "function"
    },
    {
      "inputs": [],
      "payable": false,
      "stateMutability": "nonpayable",
      "type": "constructor"
    },
    {
      "anonymous": false,
      "inputs": [
        {
          "indexed": false,
          "name": "referenceCode",
          "type": "bytes32"
        },
        {
          "indexed": false,
          "name": "issueDate",
          "type": "uint256"
        },
        {
          "indexed": false,
          "name": "offerExpiry",
          "type": "uint256"
        },
        {
          "indexed": true,
          "name": "vendor",
          "type": "address"
        },
        {
          "indexed": true,
          "name": "counterparty",
          "type": "address"
        }
      ],
      "name": "TradeRegistered",
      "type": "event"
    },
    {
      "anonymous": false,
      "inputs": [
        {
          "indexed": false,
          "name": "referenceCode",
          "type": "bytes32"
        },
        {
          "indexed": false,
          "name": "offerAccepted",
          "type": "uint256"
        },
        {
          "indexed": false,
          "name": "status",
          "type": "uint8"
        },
        {
          "indexed": true,
          "name": "vendor",
          "type": "address"
        },
        {
          "indexed": true,
          "name": "counterparty",
          "type": "address"
        }
      ],
      "name": "TradeCertified",
      "type": "event"
    }
  ],
  "bytecode": "0x6060604052341561000f57600080fd5b336000806101000a81548173ffffffffffffffffffffffffffffffffffffffff021916908373ffffffffffffffffffffffffffffffffffffffff160217905550610057610110565b604051809103906000f080151561006d57600080fd5b600160006101000a81548173ffffffffffffffffffffffffffffffffffffffff021916908373ffffffffffffffffffffffffffffffffffffffff1602179055506100b5610120565b604051809103906000f08015156100cb57600080fd5b600260006101000a81548173ffffffffffffffffffffffffffffffffffffffff021916908373ffffffffffffffffffffffffffffffffffffffff160217905550610130565b6040516108b6806114b683390190565b604051610d6b80611d6c83390190565b6113778061013f6000396000f30060606040526004361061008e576000357c0100000000000000000000000000000000000000000000000000000000900463ffffffff168063024858b11461009357806311cec8f01461011e578063164ceb70146101ed578063a3031b77146102c0578063a7f43779146102e9578063b4144b79146102fe578063e9841bd8146103d4578063f2fde38b1461041a575b600080fd5b341561009e57600080fd5b61010860048080356000191690602001909190803590602001909190803590602001909190803573ffffffffffffffffffffffffffffffffffffffff1690602001909190803573ffffffffffffffffffffffffffffffffffffffff16906020019091905050610453565b6040518082815260200191505060405180910390f35b341561012957600080fd5b61013f60048080359060200190919050506108b4565b60405180886000191660001916815260200187815260200186815260200185815260200184600281111561016f57fe5b60ff1681526020018373ffffffffffffffffffffffffffffffffffffffff1673ffffffffffffffffffffffffffffffffffffffff1681526020018273ffffffffffffffffffffffffffffffffffffffff1673ffffffffffffffffffffffffffffffffffffffff16815260200197505050505050505060405180910390f35b34156101f857600080fd5b6102126004808035600019169060200190919050506109b0565b60405180886000191660001916815260200187815260200186815260200185815260200184600281111561024257fe5b60ff1681526020018373ffffffffffffffffffffffffffffffffffffffff1673ffffffffffffffffffffffffffffffffffffffff1681526020018273ffffffffffffffffffffffffffffffffffffffff1673ffffffffffffffffffffffffffffffffffffffff16815260200197505050505050505060405180910390f35b34156102cb57600080fd5b6102d3610ab4565b6040518082815260200191505060405180910390f35b34156102f457600080fd5b6102fc610b64565b005b341561030957600080fd5b610335600480803573ffffffffffffffffffffffffffffffffffffffff16906020019091905050610bf5565b604051808060200180602001838103835285818151815260200191508051906020019060200280838360005b8381101561037c578082015181840152602081019050610361565b50505050905001838103825284818151815260200191508051906020019060200280838360005b838110156103be5780820151818401526020810190506103a3565b5050505090500194505050505060405180910390f35b34156103df57600080fd5b61041860048080356000191690602001909190803573ffffffffffffffffffffffffffffffffffffffff16906020019091905050611022565b005b341561042557600080fd5b610451600480803573ffffffffffffffffffffffffffffffffffffffff16906020019091905050611267565b005b6000826000809054906101000a900473ffffffffffffffffffffffffffffffffffffffff1673ffffffffffffffffffffffffffffffffffffffff163373ffffffffffffffffffffffffffffffffffffffff1614806104dc57508073ffffffffffffffffffffffffffffffffffffffff163373ffffffffffffffffffffffffffffffffffffffff16145b15156104e757600080fd5b838360008273ffffffffffffffffffffffffffffffffffffffff1614158015610527575060008173ffffffffffffffffffffffffffffffffffffffff1614155b151561053257600080fd5b600260009054906101000a900473ffffffffffffffffffffffffffffffffffffffff1673ffffffffffffffffffffffffffffffffffffffff1663110d9e688a8a8a8a8a6000604051602001526040518663ffffffff167c01000000000000000000000000000000000000000000000000000000000281526004018086600019166000191681526020018581526020018481526020018373ffffffffffffffffffffffffffffffffffffffff1673ffffffffffffffffffffffffffffffffffffffff1681526020018273ffffffffffffffffffffffffffffffffffffffff1673ffffffffffffffffffffffffffffffffffffffff16815260200195505050505050602060405180830381600087803b151561064b57600080fd5b6102c65a03f1151561065c57600080fd5b505050604051805190509350600160009054906101000a900473ffffffffffffffffffffffffffffffffffffffff1673ffffffffffffffffffffffffffffffffffffffff1663b7c52820878b6040518363ffffffff167c0100000000000000000000000000000000000000000000000000000000028152600401808373ffffffffffffffffffffffffffffffffffffffff1673ffffffffffffffffffffffffffffffffffffffff168152602001826000191660001916815260200192505050600060405180830381600087803b151561073457600080fd5b6102c65a03f1151561074557600080fd5b505050600160009054906101000a900473ffffffffffffffffffffffffffffffffffffffff1673ffffffffffffffffffffffffffffffffffffffff166304ac3b80868b6040518363ffffffff167c0100000000000000000000000000000000000000000000000000000000028152600401808373ffffffffffffffffffffffffffffffffffffffff1673ffffffffffffffffffffffffffffffffffffffff168152602001826000191660001916815260200192505050600060405180830381600087803b151561081457600080fd5b6102c65a03f1151561082557600080fd5b5050508473ffffffffffffffffffffffffffffffffffffffff168673ffffffffffffffffffffffffffffffffffffffff167f70e60b9ac1c6b12ecdc462080b101972148a40ba231d302c31ec3ac6791ea2e78b8b8b604051808460001916600019168152602001838152602001828152602001935050505060405180910390a383935050505095945050505050565b6000806000806000806000600260009054906101000a900473ffffffffffffffffffffffffffffffffffffffff1673ffffffffffffffffffffffffffffffffffffffff16632d883a7389600060405160e001526040518263ffffffff167c01000000000000000000000000000000000000000000000000000000000281526004018082815260200191505060e060405180830381600087803b151561095857600080fd5b6102c65a03f1151561096957600080fd5b505050604051805190602001805190602001805190602001805190602001805190602001805190602001805190509650965096509650965096509650919395979092949650565b6000806000806000806000600260009054906101000a900473ffffffffffffffffffffffffffffffffffffffff1673ffffffffffffffffffffffffffffffffffffffff16633b76843389600060405160e001526040518263ffffffff167c010000000000000000000000000000000000000000000000000000000002815260040180826000191660001916815260200191505060e060405180830381600087803b1515610a5c57600080fd5b6102c65a03f11515610a6d57600080fd5b505050604051805190602001805190602001805190602001805190602001805190602001805190602001805190509650965096509650965096509650919395979092949650565b6000600260009054906101000a900473ffffffffffffffffffffffffffffffffffffffff1673ffffffffffffffffffffffffffffffffffffffff1663a87d942c6000604051602001526040518163ffffffff167c0100000000000000000000000000000000000000000000000000000000028152600401602060405180830381600087803b1515610b4457600080fd5b6102c65a03f11515610b5557600080fd5b50505060405180519050905090565b6000809054906101000a900473ffffffffffffffffffffffffffffffffffffffff1673ffffffffffffffffffffffffffffffffffffffff163373ffffffffffffffffffffffffffffffffffffffff161415610bf3576000809054906101000a900473ffffffffffffffffffffffffffffffffffffffff1673ffffffffffffffffffffffffffffffffffffffff16ff5b565b610bfd611337565b610c05611337565b6000806000856000809054906101000a900473ffffffffffffffffffffffffffffffffffffffff1673ffffffffffffffffffffffffffffffffffffffff163373ffffffffffffffffffffffffffffffffffffffff161480610c9157508073ffffffffffffffffffffffffffffffffffffffff163373ffffffffffffffffffffffffffffffffffffffff16145b1515610c9c57600080fd5b600160009054906101000a900473ffffffffffffffffffffffffffffffffffffffff1673ffffffffffffffffffffffffffffffffffffffff16635b467404886000604051604001526040518263ffffffff167c0100000000000000000000000000000000000000000000000000000000028152600401808273ffffffffffffffffffffffffffffffffffffffff1673ffffffffffffffffffffffffffffffffffffffff1681526020019150506040805180830381600087803b1515610d6057600080fd5b6102c65a03f11515610d7157600080fd5b505050604051805190602001805190509350935083604051805910610d935750595b90808252806020026020018201604052509550600091505b83821015610ecc57600160009054906101000a900473ffffffffffffffffffffffffffffffffffffffff1673ffffffffffffffffffffffffffffffffffffffff1663ecc72b0f88846000604051602001526040518363ffffffff167c0100000000000000000000000000000000000000000000000000000000028152600401808373ffffffffffffffffffffffffffffffffffffffff1673ffffffffffffffffffffffffffffffffffffffff16815260200182815260200192505050602060405180830381600087803b1515610e8057600080fd5b6102c65a03f11515610e9157600080fd5b505050604051805190508683815181101515610ea957fe5b906020019060200201906000191690816000191681525050816001019150610dab565b82604051805910610eda5750595b90808252806020026020018201604052509450600091505b8282101561101357600160009054906101000a900473ffffffffffffffffffffffffffffffffffffffff1673ffffffffffffffffffffffffffffffffffffffff16632f65327988846000604051602001526040518363ffffffff167c0100000000000000000000000000000000000000000000000000000000028152600401808373ffffffffffffffffffffffffffffffffffffffff1673ffffffffffffffffffffffffffffffffffffffff16815260200182815260200192505050602060405180830381600087803b1515610fc757600080fd5b6102c65a03f11515610fd857600080fd5b505050604051805190508583815181101515610ff057fe5b906020019060200201906000191690816000191681525050816001019150610ef2565b85859550955050505050915091565b6000806000836000809054906101000a900473ffffffffffffffffffffffffffffffffffffffff1673ffffffffffffffffffffffffffffffffffffffff163373ffffffffffffffffffffffffffffffffffffffff1614806110ae57508073ffffffffffffffffffffffffffffffffffffffff163373ffffffffffffffffffffffffffffffffffffffff16145b15156110b957600080fd5b6110c2866109b0565b9850985050505050508473ffffffffffffffffffffffffffffffffffffffff168373ffffffffffffffffffffffffffffffffffffffff1614151561110557600080fd5b429150600260009054906101000a900473ffffffffffffffffffffffffffffffffffffffff1673ffffffffffffffffffffffffffffffffffffffff166352a6840b878460016040518463ffffffff167c010000000000000000000000000000000000000000000000000000000002815260040180846000191660001916815260200183815260200182600281111561119957fe5b60ff1681526020019350505050600060405180830381600087803b15156111bf57600080fd5b6102c65a03f115156111d057600080fd5b5050508473ffffffffffffffffffffffffffffffffffffffff168473ffffffffffffffffffffffffffffffffffffffff167f54868388f33b7f267191d131ecdce629c5db558db5b616f4fd5aab1956cc74368885600160405180846000191660001916815260200183815260200182600281111561124a57fe5b60ff168152602001935050505060405180910390a3505050505050565b6000809054906101000a900473ffffffffffffffffffffffffffffffffffffffff1673ffffffffffffffffffffffffffffffffffffffff163373ffffffffffffffffffffffffffffffffffffffff16141561133457600073ffffffffffffffffffffffffffffffffffffffff168173ffffffffffffffffffffffffffffffffffffffff1614151561133357806000806101000a81548173ffffffffffffffffffffffffffffffffffffffff021916908373ffffffffffffffffffffffffffffffffffffffff1602179055505b5b50565b6020604051908101604052806000815250905600a165627a7a723058207c838cd248e888a8f87a06856cf04d7aa9579e1b962e9cd460bad22fb6b9dda000296060604052336000806101000a81548173ffffffffffffffffffffffffffffffffffffffff021916908373ffffffffffffffffffffffffffffffffffffffff160217905550610863806100536000396000f300606060405260043610610083576000357c0100000000000000000000000000000000000000000000000000000000900463ffffffff16806304ac3b80146100885780632f653279146100ce5780635b4674041461012c578063a7f4377914610180578063b7c5282014610195578063ecc72b0f146101db578063f2fde38b14610239575b600080fd5b341561009357600080fd5b6100cc600480803573ffffffffffffffffffffffffffffffffffffffff1690602001909190803560001916906020019091905050610272565b005b34156100d957600080fd5b61010e600480803573ffffffffffffffffffffffffffffffffffffffff169060200190919080359060200190919050506102e5565b60405180826000191660001916815260200191505060405180910390f35b341561013757600080fd5b610163600480803573ffffffffffffffffffffffffffffffffffffffff169060200190919050506103cc565b604051808381526020018281526020019250505060405180910390f35b341561018b57600080fd5b6101936104f1565b005b34156101a057600080fd5b6101d9600480803573ffffffffffffffffffffffffffffffffffffffff1690602001909190803560001916906020019091905050610582565b005b34156101e657600080fd5b61021b600480803573ffffffffffffffffffffffffffffffffffffffff169060200190919080359060200190919050506105f5565b60405180826000191660001916815260200191505060405180910390f35b341561024457600080fd5b610270600480803573ffffffffffffffffffffffffffffffffffffffff169060200190919050506106dc565b005b600160008373ffffffffffffffffffffffffffffffffffffffff1673ffffffffffffffffffffffffffffffffffffffff16815260200190815260200160002060010180548060010182816102c691906107ac565b9160005260206000209001600083909190915090600019169055505050565b6000808373ffffffffffffffffffffffffffffffffffffffff161415801561030e575060008210155b801561035e5750600160008473ffffffffffffffffffffffffffffffffffffffff1673ffffffffffffffffffffffffffffffffffffffff1681526020019081526020016000206001018054905082105b151561036957600080fd5b600160008473ffffffffffffffffffffffffffffffffffffffff1673ffffffffffffffffffffffffffffffffffffffff168152602001908152602001600020600101828154811015156103b857fe5b906000526020600020900154905092915050565b6000806103d76107d8565b600160008573ffffffffffffffffffffffffffffffffffffffff1673ffffffffffffffffffffffffffffffffffffffff1681526020019081526020016000206040805190810160405290816000820180548060200260200160405190810160405280929190818152602001828054801561047457602002820191906000526020600020905b8154600019168152602001906001019080831161045c575b50505050508152602001600182018054806020026020016040519081016040528092919081815260200182805480156104d057602002820191906000526020600020905b815460001916815260200190600101908083116104b8575b50505050508152505090508060000151518160200151519250925050915091565b6000809054906101000a900473ffffffffffffffffffffffffffffffffffffffff1673ffffffffffffffffffffffffffffffffffffffff163373ffffffffffffffffffffffffffffffffffffffff161415610580576000809054906101000a900473ffffffffffffffffffffffffffffffffffffffff1673ffffffffffffffffffffffffffffffffffffffff16ff5b565b600160008373ffffffffffffffffffffffffffffffffffffffff1673ffffffffffffffffffffffffffffffffffffffff16815260200190815260200160002060000180548060010182816105d691906107ac565b9160005260206000209001600083909190915090600019169055505050565b6000808373ffffffffffffffffffffffffffffffffffffffff161415801561061e575060008210155b801561066e5750600160008473ffffffffffffffffffffffffffffffffffffffff1673ffffffffffffffffffffffffffffffffffffffff1681526020019081526020016000206000018054905082105b151561067957600080fd5b600160008473ffffffffffffffffffffffffffffffffffffffff1673ffffffffffffffffffffffffffffffffffffffff168152602001908152602001600020600001828154811015156106c857fe5b906000526020600020900154905092915050565b6000809054906101000a900473ffffffffffffffffffffffffffffffffffffffff1673ffffffffffffffffffffffffffffffffffffffff163373ffffffffffffffffffffffffffffffffffffffff1614156107a957600073ffffffffffffffffffffffffffffffffffffffff168173ffffffffffffffffffffffffffffffffffffffff161415156107a857806000806101000a81548173ffffffffffffffffffffffffffffffffffffffff021916908373ffffffffffffffffffffffffffffffffffffffff1602179055505b5b50565b8154818355818115116107d3578183600052602060002091820191016107d291906107fe565b5b505050565b60408051908101604052806107eb610823565b81526020016107f8610823565b81525090565b61082091905b8082111561081c576000816000905550600101610804565b5090565b90565b6020604051908101604052806000815250905600a165627a7a72305820d1a3cd2614f2e1cf74ab43e4365847d225af141561c8f4fdf41885c1b7d5d90d00296060604052336000806101000a81548173ffffffffffffffffffffffffffffffffffffffff021916908373ffffffffffffffffffffffffffffffffffffffff160217905550610d18806100536000396000f30060606040526004361061008e576000357c0100000000000000000000000000000000000000000000000000000000900463ffffffff168063110d9e68146100935780632d883a731461011e57806338a699a4146101ed5780633b7684331461022c57806352a6840b146102ff578063a7f437791461033b578063a87d942c14610350578063f2fde38b14610379575b600080fd5b341561009e57600080fd5b61010860048080356000191690602001909190803590602001909190803590602001909190803573ffffffffffffffffffffffffffffffffffffffff1690602001909190803573ffffffffffffffffffffffffffffffffffffffff169060200190919050506103b2565b6040518082815260200191505060405180910390f35b341561012957600080fd5b61013f6004808035906020019091905050610587565b60405180886000191660001916815260200187815260200186815260200185815260200184600281111561016f57fe5b60ff1681526020018373ffffffffffffffffffffffffffffffffffffffff1673ffffffffffffffffffffffffffffffffffffffff1681526020018273ffffffffffffffffffffffffffffffffffffffff1673ffffffffffffffffffffffffffffffffffffffff16815260200197505050505050505060405180910390f35b34156101f857600080fd5b6102126004808035600019169060200190919050506105ed565b604051808215151515815260200191505060405180910390f35b341561023757600080fd5b610251600480803560001916906020019091905050610639565b60405180886000191660001916815260200187815260200186815260200185815260200184600281111561028157fe5b60ff1681526020018373ffffffffffffffffffffffffffffffffffffffff1673ffffffffffffffffffffffffffffffffffffffff1681526020018273ffffffffffffffffffffffffffffffffffffffff1673ffffffffffffffffffffffffffffffffffffffff16815260200197505050505050505060405180910390f35b341561030a57600080fd5b61033960048080356000191690602001909190803590602001909190803560ff169060200190919050506107eb565b005b341561034657600080fd5b61034e610a6b565b005b341561035b57600080fd5b610363610afc565b6040518082815260200191505060405180910390f35b341561038457600080fd5b6103b0600480803573ffffffffffffffffffffffffffffffffffffffff16906020019091905050610b09565b005b60006103bc610c19565b6103c5876105ed565b1515156103d157600080fd5b6101006040519081016040528088600019168152602001878152602001600060028111156103fb57fe5b81526020018573ffffffffffffffffffffffffffffffffffffffff1681526020018473ffffffffffffffffffffffffffffffffffffffff1681526020016001151581526020016000815260200186815250905080600260008960001916600019168152602001908152602001600020600082015181600001906000191690556020820151816001015560408201518160020160006101000a81548160ff021916908360028111156104a857fe5b021790555060608201518160020160016101000a81548173ffffffffffffffffffffffffffffffffffffffff021916908373ffffffffffffffffffffffffffffffffffffffff16021790555060808201518160030160006101000a81548173ffffffffffffffffffffffffffffffffffffffff021916908373ffffffffffffffffffffffffffffffffffffffff16021790555060a08201518160030160146101000a81548160ff02191690831515021790555060c0820151816004015560e0820151816005015590505061057b87610bd9565b91505095945050505050565b60008060008060008060008088101580156105a6575060018054905088105b15156105b157600080fd5b6105d46001898154811015156105c357fe5b906000526020600020900154610639565b9650965096509650965096509650919395979092949650565b60008060018054905014156106055760009050610634565b60026000836000191660001916815260200190815260200160002060030160149054906101000a900460ff1690505b919050565b600080600080600080600061064c610c19565b610655896105ed565b151561066057600080fd5b600260008a600019166000191681526020019081526020016000206101006040519081016040529081600082015460001916600019168152602001600182015481526020016002820160009054906101000a900460ff1660028111156106c257fe5b60028111156106cd57fe5b81526020016002820160019054906101000a900473ffffffffffffffffffffffffffffffffffffffff1673ffffffffffffffffffffffffffffffffffffffff1673ffffffffffffffffffffffffffffffffffffffff1681526020016003820160009054906101000a900473ffffffffffffffffffffffffffffffffffffffff1673ffffffffffffffffffffffffffffffffffffffff1673ffffffffffffffffffffffffffffffffffffffff1681526020016003820160149054906101000a900460ff16151515158152602001600482015481526020016005820154815250509050806000015181602001518260e001518360c00151846040015185606001518660800151975097509750975097509750975050919395979092949650565b6107f3610c19565b6107fc846105ed565b151561080757600080fd5b6002600085600019166000191681526020019081526020016000206101006040519081016040529081600082015460001916600019168152602001600182015481526020016002820160009054906101000a900460ff16600281111561086957fe5b600281111561087457fe5b81526020016002820160019054906101000a900473ffffffffffffffffffffffffffffffffffffffff1673ffffffffffffffffffffffffffffffffffffffff1673ffffffffffffffffffffffffffffffffffffffff1681526020016003820160009054906101000a900473ffffffffffffffffffffffffffffffffffffffff1673ffffffffffffffffffffffffffffffffffffffff1673ffffffffffffffffffffffffffffffffffffffff1681526020016003820160149054906101000a900460ff161515151581526020016004820154815260200160058201548152505090508060e001514210151561096757600080fd5b6000600281111561097457fe5b8160400151600281111561098457fe5b14156109d4576001600281111561099757fe5b8260028111156109a357fe5b14806109c457506002808111156109b657fe5b8260028111156109c257fe5b145b15156109cf57600080fd5b6109df565b600015156109de57fe5b5b8160026000866000191660001916815260200190815260200160002060020160006101000a81548160ff02191690836002811115610a1957fe5b0217905550826002600086600019166000191681526020019081526020016000206004018190555060006002600086600019166000191681526020019081526020016000206005018190555050505050565b6000809054906101000a900473ffffffffffffffffffffffffffffffffffffffff1673ffffffffffffffffffffffffffffffffffffffff163373ffffffffffffffffffffffffffffffffffffffff161415610afa576000809054906101000a900473ffffffffffffffffffffffffffffffffffffffff1673ffffffffffffffffffffffffffffffffffffffff16ff5b565b6000600180549050905090565b6000809054906101000a900473ffffffffffffffffffffffffffffffffffffffff1673ffffffffffffffffffffffffffffffffffffffff163373ffffffffffffffffffffffffffffffffffffffff161415610bd657600073ffffffffffffffffffffffffffffffffffffffff168173ffffffffffffffffffffffffffffffffffffffff16141515610bd557806000806101000a81548173ffffffffffffffffffffffffffffffffffffffff021916908373ffffffffffffffffffffffffffffffffffffffff1602179055505b5b50565b600060018054806001018281610bef9190610c9b565b91600052602060002090016000849091909150906000191690555060018080549050039050919050565b61010060405190810160405280600080191681526020016000815260200160006002811115610c4457fe5b8152602001600073ffffffffffffffffffffffffffffffffffffffff168152602001600073ffffffffffffffffffffffffffffffffffffffff16815260200160001515815260200160008152602001600081525090565b815481835581811511610cc257818360005260206000209182019101610cc19190610cc7565b5b505050565b610ce991905b80821115610ce5576000816000905550600101610ccd565b5090565b905600a165627a7a72305820cb163ca024a4512a910d66676ae293e9c688760d64afe9115b4dfa6997481cff0029",
  "source": "pragma solidity ^0.4.2;\n\nimport './Owned.sol';\nimport './Trades.sol';\nimport './TradeManager.sol';\n\n//\n// Defines the Trade Register contract. This is the entry point to rergister trades.\n//\ncontract TradeRegister is Owned {\n\n    // Depends on these guys contracts\n    address private trades;\n    address private tradeManager;\n\n    function TradeRegister() Owned() {\n        trades = new Trades();\n        tradeManager = new TradeManager();\n    }\n\n    modifier requireTraders(address vendor, address counterparty) {\n        require(vendor != 0x0 && counterparty != 0x0);\n        _;\n    }\n\n    function getTradesByAddress(address trader)\n        restricted(trader)\n        public constant returns(bytes32[] sentTradeIds, bytes32[] receivedTradeIds)\n    {\n        var (sentTradesCount, receivedTradesCount) = Trades(trades).getCounts(trader);\n\n        uint i;\n\n        // Sent and received trades\n        sentTradeIds = new bytes32[](sentTradesCount);\n        for (i = 0; i < sentTradesCount; ++i) {\n            sentTradeIds[i] = Trades(trades).getSentTrade(trader, i);\n        }\n        receivedTradeIds = new bytes32[](receivedTradesCount);\n        for (i = 0; i < receivedTradesCount; ++i) {\n            receivedTradeIds[i] = Trades(trades).getReceivedTrade(trader, i);\n        }\n\n        return (sentTradeIds, receivedTradeIds);\n    }\n\n    event TradeRegistered(bytes32 referenceCode, uint issueDate, uint offerExpiry, address indexed vendor, address indexed counterparty);\n    event TradeCertified(bytes32 referenceCode, uint offerAccepted, TradeManager.TradeStatus status, address indexed vendor, address indexed counterparty);\n\n    function createTrade(bytes32 referenceCode, uint issueDate, uint offerExpiry, address vendor, address counterparty)\n        restricted(vendor) // The seller enters this trade...\n        requireTraders(vendor, counterparty)\n        public\n        returns(uint index)\n    {\n        index = TradeManager(tradeManager).insert(referenceCode, issueDate, offerExpiry, vendor, counterparty);\n\n        Trades(trades).addSentTrade(vendor, referenceCode);\n        Trades(trades).addReceivedTrade(counterparty, referenceCode);\n\n        TradeRegistered(referenceCode, issueDate, offerExpiry, vendor, counterparty);\n\n        return index;\n    }\n\n    function certifyTradeAsCounterparty(bytes32 referenceCode, address counterparty)\n    restricted(counterparty)\n    public {\n        var (, , , vendor, tradeCounterparty) = getTradeByReferenceCode(referenceCode);\n        require(tradeCounterparty == counterparty);\n\n        uint offerAccepted = now;\n        TradeManager(tradeManager).updateStatus(referenceCode, offerAccepted, TradeManager.TradeStatus.CounterpartyCertified);\n\n        TradeCertified(referenceCode, offerAccepted, TradeManager.TradeStatus.CounterpartyCertified, vendor, counterparty);\n    }\n\n    function getTradeByReferenceCode(bytes32 referenceCode) public constant\n        returns(bytes32, uint, uint, uint, TradeManager.TradeStatus, address, address)\n    {\n        return TradeManager(tradeManager).getByReferenceCode(referenceCode);\n    }\n\n    function getTradeByIndex(uint index) public constant\n        returns(bytes32, uint, uint, uint, TradeManager.TradeStatus, address, address)\n    {\n        return TradeManager(tradeManager).getByIndex(index);\n    }\n\n    function getTradeCount() public constant\n        returns(uint count)\n    {\n        return TradeManager(tradeManager).getCount();\n    }\n}\n",
  "sourcePath": "/Users/Kevin/Desktop/govhack2/contracts/TradeRegister.sol",
  "compiler": {
    "name": "solc",
    "version": "0.4.18+commit.9cf6e910.Emscripten.clang"
  },
  "schemaVersion": "1.0.1",
  "updatedAt": "2017-12-29T00:58:01.624Z"
}